S01700004763634170706C69636174696F6E362E7372656356
S11300000C942A000C9449000C9447000C9447006B
S11300100C9447000C9447000C9447000C94470040
S11300200C9447000C9447000C9447000C94470030
S11300300C9447000C9447000C9447000C94470020
S11300400C9447000C9447000C9447000C94470010
S11300500C94470011241FBECFE5D8E0DEBFCDBF0E
S113006010E0A0E6B0E0EAEEF6E002C005900D92E2
S1130070AA36B107D9F720E0AAE6B0E001C01D9284
S1130080AE36B207E1F70E94DE010C9473030C94C0
S113009000001F920F920FB60F9211242F933F93DB
S11300A04F935F936F937F938F939F93AF93BF937C
S11300B0EF93FF934BE650E061E081E40E9430034C
S11300C04DE650E060E081E40E9430034CE650E0ED
S11300D061E082E40E94300380916D00813019F464
S11300E080936A000CC080916B00813041F448E039
S11300F060E081E40E94C80182E080936A00FF917D
S1130100EF91BF91AF919F918F917F916F915F918B
S11301104F913F912F910F900FBE0F901F90189504
S1130120CF93DF93CDB7DEB72B970FB6F894DEBF2E
S11301300FBECDBF8AE0E0E6F0E0DE01119601904B
S11301400D928A95E1F741E060E083E40E94A50105
S113015041E061E083E40E94A5016FEF81E40E9425
S1130160E30141E060E082E40E94210241E061E0B9
S113017082E40E94210241E060E082E40E94BA022B
S113018041E061E082E40E94BA0211E3AE01455FFE
S11301905F4F60E083E40E94BE01882309F47EC0BF
S11301A08B8581117BC01F5F143678F141E060E0DC
S11301B082E40E94BA026FE381E40E94020240E0FA
S11301C061E082E40E94BA0241E060E082E40E94BD
S11301D0BA028BE49DE10197F1F700C0000041E011
S11301E061E082E40E94BA026DE681E40E940202A8
S11301F040E060E082E40E94BA028BE49DE1019752
S1130200F1F700C0000012E3C1CF0DEC109F012DE7
S11302101124069506950695902F990F892F880F1E
S1130220880F890FF12EF81A41E060E082E40E9401
S1130230BA02E1E0F0E0EC0FFD1FEF0DF11D60816B
S113024081E40E94020240E061E082E40E94BA027A
S113025041E060E082E40E94BA028BE49DE10197F0
S1130260F1F700C0000041E061E082E40E94BA02BC
S1130270E1E0F0E0EC0FFD1FE00FF11D608181E48F
S11302800E94020240E060E082E40E94BA028BE431
S11302909DE10197F1F700C0000078CFAE01455F02
S11302A05F4F61E083E40E94BE01882309F46ECFAE
S11302B08B8581116BCF11500DEC109F012D1124F2
S11302C0069506950695902F990F892F880F880F0C
S11302D0890FF12EF81A41E060E082E40E94BA022C
S11302E0E1E0F0E0EC0FFD1FEF0DF11D608181E412
S11302F00E94020240E061E082E40E94BA0241E00E
S113030060E082E40E94BA028BE49DE10197F1F778
S113031000C0000041E061E082E40E94BA02E1E032
S1130320F0E0EC0FFD1FE00FF11D608181E40E94FD
S1130330020240E060E082E40E94BA028BE49DE1A4
S11303400197F1F700C0000021CF1F93CF93DF93F3
S11303509FEB980F943068F4142FD62FC82F40E0E9
S11303600E942102412F6D2F8C2F0E94BA0281E03E
S113037001C080E0DF91CF911F9108959FEB980F0A
S1130380943020F40E94300381E0089580E00895C1
S11303909FEB980F943070F4483029F440E00E94A9
S11303A0BA0281E00895493039F441E00E94BA026A
S11303B081E0089580E0089581E008950E9490000E
S11303C080E090E008959FEB980F9430B8F4823465
S11303D061F018F4813431F013C0833449F084346B
S11303E051F00EC06ABB81E0089567BB81E00895B7
S11303F064BB81E0089561BB81E0089580E00895C5
S113040081E008959FEB980F9430B8F4823461F042
S113041018F4813431F013C0833449F0843451F03A
S11304200EC06BBB81E0089568BB81E0089565BB95
S113043081E0089562BB81E0089580E0089581E041
S113044008959FEB980F943008F086C0423008F06E
S113045085C0823449F118F4813441F081C0833479
S113046009F440C0843409F45AC07AC041110DC063
S11304702AB381E090E002C0880F991F6A95E2F7E1
S1130480809582238ABB81E00895413009F06AC0D7
S11304902AB381E090E002C0880F991F6A95E2F7C1
S11304A0822B8ABB81E0089541110DC027B381E0FE
S11304B090E002C0880F991F6A95E2F78095822325
S11304C087BB81E00895413009F04EC027B381E035
S11304D090E002C0880F991F6A95E2F7822B87BBD0
S11304E081E0089541110DC024B381E090E002C081
S11304F0880F991F6A95E2F78095822384BB81E077
S11305000895413099F524B381E090E002C0880F4A
S1130510991F6A95E2F7822B84BB81E0089541110B
S11305200DC021B381E090E002C0880F991F6A9545
S1130530E2F78095822381BB81E008954130C1F4C4
S113054021B381E090E002C0880F991F6A95E2F719
S1130550822B81BB81E0089580E0089580E00895B6
S113056081E0089581E0089581E0089581E008958F
S113057081E008959FEB980F943008F06BC04230EF
S113058008F06AC0823409F118F4813439F066C085
S1130590833491F1843409F446C060C02BB381E004
S11305A090E0062E02C0880F991F0A94E2F7809506
S11305B082238BBB8BB350E002C0440F551F6A9556
S11305C0E2F7482B4BBB81E0089528B381E090E02B
S11305D0062E02C0880F991F0A94E2F780958223A1
S11305E088BB88B350E002C0440F551F6A95E2F7F8
S11305F0482B48BB81E0089525B381E090E0062EA6
S113060002C0880F991F0A94E2F78095822385BB64
S113061085B350E002C0440F551F6A95E2F7482B9A
S113062045BB81E0089522B381E090E0062E02C02C
S1130630880F991F0A94E2F78095822382BB82B3C4
S113064050E002C0440F551F6A95E2F7482B42BBA5
S113065081E0089580E0089580E0089581E00895A0
S11306609FEB980F9430D8F58234A9F018F48134B4
S113067031F037C08334D9F0843429F132C089B3DE
S113068090E002C0959587956A95E2F78170FA012A
S1130690808381E0089586B390E002C095958795A4
S11306A06A95E2F78170FA01808381E0089583B34B
S11306B090E002C0959587956A95E2F78170FA01FA
S11306C0808381E0089580B390E002C0959587957A
S11306D06A95E2F78170FA01808381E0089580E0F1
S10D06E0089581E00895F894FFCF17
S10D06EA3F065B4F666D7D077F6FCE
S9030000FC
